:1000000000100010D12100006922000069220000C8
:1000100000000000000000000000000000000000E0
:100020000000000000000000000000006922000045
:100030000000000000000000692200003D400000B8
:100040006922000069220000692200006922000084
:100050006922000069220000692200006922000074
:100060006922000069220000692200006922000064
:100070006922000069220000692200006922000054
:100080006922000069220000692200006922000044
:100090006922000081370000692200006922000007
:1000A0006922000069220000692200006922000024
:1000B0006922000069220000692200006922000014
:1000C000B0B5F24CA54404AF042383208000C019CE
:1000D0000360002382218900C9190B60EC4ABB1818
:1000E00005221A70EB483B1801221A708121890001
:1000F0007B1801221A703C1CE74B182200920A223E
:100100000192201C191C0022322303F085FD1034BB
:10011000E14B182200920A220192201C191C18227D
:10012000322303F079FD1034DB4B182200920A22AF
:100130000192201C191C3022322303F06DFD103473
:10014000D54B182200920A220192201C191C482229
:10015000322303F061FD1034CF4B182200920A22A3
:100160000192201C191C6022322303F055FD10342B
:10017000C94B182200920A220192201C191C7822D5
:10018000322303F049FD1034C34B182200920A2297
:100190000192201C191C9022322303F03DFD1034E3
:1001A000BD4B182200920A220192201C191CA82281
:1001B000322303F031FD1034B74B182200920A228B
:1001C0000192201C191CC022322303F025FD10349B
:1001D000B14B182200920A220192201C191CD8222D
:1001E000322303F019FD1034AC4B182200920A227E
:1001F0000192201C191C00223C2303F00DFD103439
:10020000A64B182200920A220192201C191C1822C7
:100210003C2303F001FD1034A04B182200920A2267
:100220000192201C191C30223C2303F0F5FC1034F1
:100230009A4B182200920A220192201C191C482273
:100240003C2303F0E9FC1034944B182200920A225C
:100250000192201C191C60223C2303F0DDFC1034A9
:100260008E4B182200920A220192201C191C78221F
:100270003C2303F0D1FC1034884B182200920A2250
:100280000192201C191C90223C2303F0C5FC103461
:10029000824B182200920A220192201C191CA822CB
:1002A0003C2303F0B9FC10347C4B182200920A2244
:1002B0000192201C191CC0223C2303F0ADFC103419
:1002C000764B182200920A220192201C191CD82277
:1002D0003C2303F0A1FC1034714B182200920A2237
:1002E0000192201C191C0022462303F095FC1034B7
:1002F0006B4B182200920A220192201C191C182212
:10030000462303F089FC1034654B182200920A2220
:100310000192201C191C3022462303F07DFC10346E
:100320005F4B182200920A220192201C191C4822BD
:10033000462303F071FC1034594B182200920A2214
:100340000192201C191C6022462303F065FC103426
:10035000534B182200920A220192201C191C782269
:10036000462303F059FC10344D4B182200920A2208
:100370000192201C191C9022462303F04DFC1034DE
:10038000474B182200920A220192201C191CA82215
:10039000462303F041FC1034414B182200920A22FC
:1003A0000192201C191CC022462303F035FC221C9C
:1003B00010323B4B182100910A210191101C191C8D
:1003C000D822462303F028FCF8225200B918354AF7
:1003D00096235B001420009003200190081C111C40
:1003E000002203F019FCF0235B00FA182E4B0321C6
:1003F000009103210191101C191C7822A02303F005
:100400000BFC2A4BA0225200009200220192181CE1
:1004100000210022F02300F077FC244A244B2821FD
:1004200000912449019100210291101C191C052200
:100430000A2301F089F81D4AFA235B00101C191CDD
:1004400003F0E6FD00F0D2FB184B181C0A21E6224F
:1004500001F0C0F9031C9BB2F02040003A18101CB8
:10046000191CA02203F05EFC104B181C0021022274
:1004700001F0B0F9031C5A1E9341DBB2002B1BD0D4
:1004800004497B1801221A701AE0C046E0FDFFFF04
:1004900007020000050200007C4300005C450000EC
:1004A0003C4700001C490000944900000400001073
:1004B00044430000FFFF00004A4ABB18FF221A70A5
:1004C000002382208000C0190360812189007B18ED
:1004D000FF221A70444BF022009200220192181C55
:1004E00000210022F02300F00FFC404ABB184048D6
:1004F0003A1812781A701DE03C497B181B789BB2A1
:100500001A1C1B01D31A9BB2F0339AB236499B23B3
:100510005B000A20009037480190081C111C1A1C2F
:100520000A2300F0F1FB314ABB181A782F483B1818
:10053000013A1A702D497B181B78002BDCD12B4A0D
:10054000BB1800221A7018E028483B181B783A1C88
:100550001B01D318181C03F0C7FB24497B181B7818
:100560003A1C1B01D318181C03F07EFB1F4ABB1852
:100570001A781E483B1801321A701C497B181B78E8
:100580001D2BE1D9F0225200BB18181C03F06CFBA4
:10059000F82040003B18181C03F066FB124A164B6B
:1005A0009B21490000911549019100210291101CE5
:1005B000191C0522052300F0C7FF83218900C919F2
:1005C0000B689BB20522D31A9AB207499B235B00A2
:1005D0000A48009000200190081C111C3C2201F0E8
:1005E00059F8FCE2050200000400001006020000B9
:1005F0000702000061F800004C430000FFFF00000C
:10060000DB4B181C01F0BEF9031C1A1C022313401B
:100610005A1E9341DBB2002B2FD0F8225200BB1898
:10062000181C03F0E9FD031C1C1CF82040003B18BB
:10063000181C03F0F5FD031CF022D21A012394428A
:1006400000DB0023DBB2002B17D0F82149007B1818
:10065000181C03F0D1FD031C02339CB2F822520097
:10066000BB18181C03F0D2FD031CF82040003A18F8
:10067000101C211C1A1C03F055FBBD4B181C01F06B
:1006800081F9031C1A1C012313405A1E9341DBB24B
:10069000002B23D0F82149007B18181C03F0ACFD77
:1006A000031C5A1E9341DBB2002B17D0F8225200D4
:1006B000BB18181C03F0A0FD031C023B9CB2F820E1
:1006C00040003B18181C03F0A1FD031CF821490051
:1006D0007A18101C211C1A1C03F024FBF022520073
:1006E000BB18181C03F088FD031C1C1CF0204000E4
:1006F0003B18181C03F094FD031C5B08DBB2E318E5
:100700009CB2F02149007B18181C03F07FFD031CEC
:100710001D1CF0225200BB18181C03F08DFD031C99
:100720005B08DBB2EB189BB2F82040003A18101CB3
:10073000211C1A1C03F070FB031C5A1E9341DBB2F0
:10074000002B0FD0812189007B181B785B42DAB225
:10075000812080003B181A70864B181CC821142277
:1007600003F082F8F82149007B18181C03F09EFA68
:10077000F0225200BB18181C03F03EFD031C1A1C8B
:100780007D483B181B785BB29BB2D3189CB2F0211A
:1007900049007B18181C03F039FD031C1A1C81202A
:1007A00080003B181B785BB29BB2D3189BB2F02140
:1007B00049007A18101C211C1A1C03F0B3FAF0220D
:1007C0005200BB18181C03F017FD031C023B5A42D1
:1007D0005341DBB2002B0FD067483B181B785B42BC
:1007E000DAB265497B181A70624AC8235B00101C94
:1007F000191C142203F038F8F0225200BB18181C00
:1008000003F0FAFC031CEE3B5A425341DBB2002BCF
:100810000FD059483B181B785B42DAB256497B1817
:100820001A70544AC8235B00101C191C142203F0D0
:100830001BF8F0225200BB18181C03F0E7FC031C45
:10084000023B5A425341DBB2002B11D08120800081
:100850003B181B785B42DAB2812189007B181A7041
:10086000444AC8235B00101C191C142202F0FCFF30
:10087000F0225200BB18181C03F0C8FC031C1C1CFF
:10088000F82040003B18181C03F0C0FC031C1D1C82
:10089000F82149007B18181C03F0CEFC031CEB1850
:1008A0000233E117DA0F081C9C425041031CDBB2F3
:1008B000002B00D1C6E031497B181A782F483B182D
:1008C000013A1A702D497B181B785BB2002B3BD183
:1008D0002B4BA0225200009200220192181C0021F2
:1008E0000022F02300F010FA254A264B64210091E3
:1008F0002549019100210291101C191C092228236D
:1009000000F022FE1E4A214B7821009120490191DE
:1009100000210291101C191C0F22082300F014FE64
:1009200004E0174B181C0A2103F072FB104B181C33
:1009300001F028F8031C1A1C042313405A425341A7
:10094000DBB2002BEDD193E10D4B181C002164228A
:1009500000F040FF021C012313405A1E9341DBB2FA
:10096000002B17D0044ABB1801221A7016E0C046AB
:1009700048010010440100100502000007020000B9
:100980000400001054430000FFFF0000604300001B
:10099000E0FF0000B9483B18FF221A70812189004E
:1009A0007B18FF221A70B64B181C0A21E62200F0B1
:1009B00011FF031C9CB2B24B181C5A21782200F084
:1009C00009FF031C9BB2F02040003A18101C211CA8
:1009D0001A1C03F0A7F9AA4A9B235B000A21009185
:1009E00000210191101CA5211A1C782300F08CF91C
:1009F000A4497B18A4483A1812781A701DE0A1493E
:100A00007B181B789BB21A1C1B01D31A9BB2F033C4
:100A10009AB29B499B235B000A2000909B4801905F
:100A2000081C111C1A1C0A2300F06EF9954ABB1809
:100A30001A7894483B18013A1A7092497B181B782F
:100A4000002BDCD1012382229200D21913608D4841
:100A50003B1800221A707AE08A497B181B783A1CEE
:100A60001B01D318181C03F0F3FB031C5A1E9341FF
:100A7000DBB2002B04D0002382229200D219136033
:100A800080483B181B783A1C1B01D518F0214900FF
:100A90007B18181C03F0B0FB031C1C1CF022520036
:100AA000BB18181C03F0B2FB031C281C211C1A1CC9
:100AB00003F0B2F9031C80208000C019036080217C
:100AC0008900C9190B68002B3AD06E4ABB181B78F5
:100AD0003A1C1B01D318181C03F006F98020800073
:100AE000C0190368012B05D080218900C9190B6842
:100AF000032B09D181229200BB181B785B42DAB22A
:100B0000812080003B181A7080218900C9190B6868
:100B1000022B05D080229200D2191368042B07D132
:100B200056483B181B785B42DAB254497B181A705E
:100B3000574AFA239B00101C191C142202F094FE41
:100B4000504ABB181A784F483B1801321A704D4969
:100B50007B181B781D2B00D87EE782229200D219C9
:100B60001368012B31D183208000C0190368002B4A
:100B70002BDD83218900C9190B68013B8322920078
:100B8000D21913603E4A434B9B21490000914249D0
:100B9000019100210291101C191C0522052300F06F
:100BA000D3FC83208000C01903689BB20522D31AAE
:100BB0009AB233499B235B00374800900020019094
:100BC000081C111C3C2200F065FD83218900C91915
:100BD0000B6805332A4A101C191C03F019FA8222EB
:100BE0009200D2191368002B00D109E58320800000
:100BF000C0190368002B00DD26E4214BF02200928F
:100C00001F220192181C00210022F02300F07CF822
:100C10001B4A224B64210091214901911F2102911D
:100C2000101C191C0822282300F08EFC144A1D4BAE
:100C3000782100911A4901911F210291101C191C61
:100C40000F22082300F080FC04E00D4B181C0A2141
:100C500003F0DEF9144B181C00F094FE031C1A1C60
:100C6000042313405A425341DBB2002BEDD1C0465E
:100C7000BD4684239B009D44B0BDC04605020000D4
:100C800004000010060200000702000061F80000E6
:100C9000440100104C430000FFFF000070430000BF
:100CA000E0FF0000604300004801001080B582B002
:100CB00000AF78607B68181C03F02CF97B68243344
:100CC000181C02F0F5FB7B684533FF33181C00F05D
:100CD0003BFE7B684133FF33181C02F089FD7B68C3
:100CE0003D33FF33181C00F0EBFE7A68054B101CF7
:100CF000191C03F041F97B68181C00F0CFFDBD46BC
:100D000002B080BD7539000090B587B002AFF860C1
:100D1000081C111C1A1C3B1C0A3318803B1C08338E
:100D20001980BB1D1A80FB689E22520098183B1C3C
:100D30000A3319883B1C08331A88BB1D1B883C1CCE
:100D40002034248800943C1C24342488019401F02D
:100D500003F8BD4605B090BD90B587B002AFF8600E
:100D6000081C111C1A1C3B1C0A3318803B1C08333E
:100D70001980BB1D1A803A1C0A32BB1D12881B88C1
:100D8000D3189BB2F8683A1C0A3211883A1C083210
:100D900012883C1C0834248800943C1C2434248889
:100DA000019400F0FBFA3A1C08323B1C20331288F5
:100DB0001B88D3189CB2F8683B1C0A3319883B1C6B
:100DC00008331A883B1C0A331B8800943C1C2434CB
:100DD0002488019400F0E2FA3A1C0A32BB1D128802
:100DE0001B88D31899B23A1C0A32BB1D12881B8883
:100DF000D3189BB2381C08303A1C20320088128865
:100E0000821894B2F8683A1C0832128800943C1C8C
:100E100024342488019400F0C1FA3A1C08323B1CA7
:100E2000203312881B88D3189AB2391C0A31BB1D93
:100E300009881B88CB189BB2381C0830391C20311C
:100E40000088098841188CB2F868391C0A31098871
:100E500000943C1C24342488019400F09FFABD4681
:100E600005B090BD80B58AB000AFF860081C111CB9
:100E70001A1C3B1C0A3318803B1C08331980BB1D0D
:100E80001A80BB1D1B88013B7B6200233B62012350
:100E9000FB610123BB61BB1D1B885B00FA69D31A90
:100EA0007B61D5E0FB689E22520098187B6A9AB25B
:100EB0003B1C0A331B88D31899B23B6A9AB23B1C7D
:100EC00008331B88D3189AB23B1C30331B8800F0C0
:100ED000AFFEFB689E22520098183B6A9AB23B1CF8
:100EE0000A331B88D31899B27B6A9AB23B1C083329
:100EF0001B88D3189AB23B1C30331B8800F098FE35
:100F0000FB689E22520098183B6A9BB23A1C0A3238
:100F10001288D31A99B27B6A9AB23B1C08331B8899
:100F2000D3189AB23B1C30331B8800F081FEFB685B
:100F30009E22520098187B6A9BB23A1C0A32128891
:100F4000D31A99B23B6A9AB23B1C08331B88D31858
:100F50009AB23B1C30331B8800F06AFEFB689E226D
:100F6000520098187B6A9BB23A1C0A321288D31A34
:100F700099B23B6A9BB23A1C08321288D31A9AB2D1
:100F80003B1C30331B8800F053FEFB689E2252004E
:100F900098183B6A9BB23A1C0A321288D31A99B24B
:100FA0007B6A9BB23A1C08321288D31A9AB23B1C55
:100FB00030331B8800F03CFEFB689E2252009818DC
:100FC0003B6A9AB23B1C0A331B88D31899B27B6ADE
:100FD0009BB23A1C08321288D31A9AB23B1C3033A7
:100FE0001B8800F025FEFB689E22520098187B6A41
:100FF0009AB23B1C0A331B88D31899B23B6A9BB246
:101000003A1C08321288D31A9AB23B1C30331B8820
:1010100000F00EFE7B69002B09DC3B6A01333B626A
:101020007A69BB69D3187B61BB690233BB617B6999
:10103000002B0DDD7B6A013B7B62FB690233FB61A8
:10104000BB1D1B885B00FA69D31A7A69D3187B61D0
:101050007A6A3B6A9A4200DB24E7BD460AB080BD4B
:1010600090B58DB002AFF860081C111C1A1C3B1C17
:101070000A3318803B1C08331980BB1D1A80BB1D26
:101080001B88013B7B6200233B620123FB61012340
:10109000BB61BB1D1B885B00FA69D31A7B61ADE0A5
:1010A0007B6A9BB23A1C0A321288D31A99B23B6A05
:1010B0009AB23B1C08331B88D3189AB27B6A98B249
:1010C0003B1C0A331B88C3189BB2386A84B2381C95
:1010D00008300088201884B2F86800943C1C38342A
:1010E0002488019400F05AF93B6A9BB23A1C0A32F8
:1010F0001288D31A99B27B6A9AB23B1C08331B88B8
:10110000D3189AB23B6A98B23B1C0A331B88C318A7
:101110009BB2786A84B2381C08300088201884B2E8
:10112000F86800943C1C38342488019400F036F9A7
:101130007B6A9BB23A1C0A321288D31A99B23B6A74
:101140009BB23A1C08321288D31A9AB27B6A98B2C0
:101150003B1C0A331B88C3189BB2386A80B23C1C04
:1011600008342488201A84B2F86800943C1C38346F
:101170002488019400F012F93B6A9BB23A1C0A32AF
:101180001288D31A99B27B6A9BB23A1C0832128831
:10119000D31A9AB23B6A98B23B1C0A331B88C31815
:1011A0009BB2786A80B23C1C08342488201A84B22E
:1011B000F86800943C1C38342488019400F0EEF860
:1011C0007B69002B09DC3B6A01333B627A69BB69AE
:1011D000D3187B61BB690233BB617B69002B0DDDDA
:1011E0007B6A013B7B62FB690233FB61BB1D1B8891
:1011F0005B00FA69D31A7A69D3187B617A6A3B6A11
:101200009A4200DB4CE7BD460BB090BD80B58AB07A
:1012100000AFF860081C111C1A1C3B1C0A33188014
:101220003B1C08331980BB1D1A80BB1D1A883B1C50
:101230000A331B88D31A3B613B1C30331A883B1C92
:1012400008331B88D31A7B6201233B627B6A002B25
:1012500005DA01235B423B627B6A5B427B627B6A0D
:101260005A003B69D31AFB613B1C08331B88BB61E6
:101270003B1C0A331B887B6123E0FB689E225200E3
:1012800098187B6999B2BB699AB23B1C34331B88AE
:1012900000F0CEFCFB69002B0BDDBA693B6AD3186A
:1012A000BB613A69131CDB079B1A5B00FA69D31810
:1012B000FB617B6A5B00FA69D318FB617B690133D0
:1012C0007B61BB1D1A887B699A42D6DABD460AB09B
:1012D00080BDC04680B58AB000AFF860081C111C04
:1012E0001A1C3B1C0A3318803B1C08331980BB1D99
:1012F0001A80BB1D1A883B1C0A331B88D31A7B62D9
:101300003B1C30331A883B1C08331B88D31A3B61C3
:1013100001233B627B6A002B05DA01235B423B62BF
:101320007B6A5B427B627B6A5A003B69D31AFB6132
:101330003B1C0A331B88BB613B1C08331B887B6149
:1013400023E0FB689E2252009818BB6999B27B6922
:101350009AB23B1C34331B8800F06AFCFB69002BFB
:101360000BDDBA693B6AD318BB613A69131CDB0712
:101370009B1A5B00FA69D318FB617B6A5B00FA6910
:10138000D318FB617B6901337B613B1C30331A88C6
:101390007B699A42D5DABD460AB080BD90B587B068
:1013A00002AFF860081C111C1A1C3B1C0A33188081
:1013B0003B1C08331980BB1D1A803B1C20331A8844
:1013C0003B1C08331B88D31AFA68101C191C02F046
:1013D0009FFF041CBB1D1A883B1C0A331B88D31AB1
:1013E000FA68101C191C02F093FF021C012394429E
:1013F00000DB0023DBB2002B2ED03A1C0A32BB1DCF
:1014000012881B889A4213D9F868BB1D19883B1CA7
:1014100020331A883B1C0A331B883C1C0834248860
:1014200000943C1C243424880194FFF7EFFE42E032
:10143000F8683B1C0A3319883B1C08331A88BB1D0B
:101440001B883C1C2034248800943C1C24342488B1
:101450000194FFF7DBFE2EE03A1C08323B1C2033E0
:1014600012881B889A4213D9F868BB1D19883B1C47
:1014700020331A883B1C0A331B883C1C0834248800
:1014800000943C1C243424880194FFF723FF12E0CD
:10149000F8683B1C0A3319883B1C08331A88BB1DAB
:1014A0001B883C1C2034248800943C1C2434248851
:1014B0000194FFF70FFFBD4605B090BD80B584B025
:1014C00000AFF860081C111C1A1C3B1C0A33188062
:1014D0003B1C08331980BB1D1A80FB689E225200FA
:1014E00098183B1C0A3319883B1C08331A88BB1D0B
:1014F0001B8800F09DFBBD4604B080BD90B587B051
:1015000002AFF860081C111C1A1C3B1C0A3318801F
:101510003B1C08331980BB1D1A80FB689E225200B9
:1015200098183B1C0A3319883B1C08331A88BB1DCA
:101530001B883C1C2034248800947C6A019400F0B1
:10154000A5FBBD4605B090BD80B59AB002AFF8606E
:10155000B960111C1A1CBB1D19803B1D1A803B1C55
:101560005F3300221A700023BB653B1C5F330022EF
:101570001A7080E03B1C5F331B78BA68D3181B7865
:101580001A1C203A131C9B009A18414BD318BB65B8
:101590003B1C5D3300221A7048E03B1C5E33002286
:1015A0001A7037E03B1C5D331B78BA6DD3181B787B
:1015B0001A1C3B1C5E331B781A410123134011D0C7
:1015C0003B1C5E331A78131C9B009A183B1C5D333E
:1015D0001B78D2183B1C10335200391C6C3109881F
:1015E000D15210E03B1C5E331A78131C9B009A18F2
:1015F0003B1C5D331B78D2183B1C10335200391C46
:1016000070310988D1523B1C5E331A783B1C5E3323
:1016100001321A703B1C5E331B78062BC2D93B1C6F
:101620005D331A783B1C5D3301321A703B1C5D330D
:101630001B78042BB1D9FB689E22520099183B1DE0
:101640001A883B1C68331B8807200090381C103018
:101650000190081C111C1A1C052300F017FB3B1DF0
:101660003A1D128809321A803B1C5F331A783B1CE2
:101670005F3301321A703B1C5F331B789BB2BA1D7B
:1016800012889A4200D975E7BD4618B080BDC046A1
:10169000A849000090B58BB004AFF860081C111C7D
:1016A0001A1C3B1C0A3318803B1C08331980BB1DD5
:1016B0001A803B1C0A331B88181C0A2102F02AFDE1
:1016C0000B1C9BB2DBB23033DAB23B1C10331A7105
:1016D0003C1C0A343B1C0A331B88181C0A2102F0EC
:1016E000D5FC031C23803B1C0A331B88181C0A21D1
:1016F00002F010FD0B1C9BB2DBB23033DAB23B1CA4
:101700001033DA703C1C0A343B1C0A331B88181C4B
:101710000A2102F0BBFC031C23803B1C0A331B88FC
:10172000181C0A2102F0F6FC0B1C9BB2DBB2303312
:10173000DAB23B1C10339A703C1C0A343B1C0A334F
:101740001B88181C0A2102F0A1FC031C23803B1CEF
:101750000A331B88181C0A2102F0DCFC0B1C9BB20C
:10176000DBB23033DAB23B1C10335A703C1C0A3403
:101770003B1C0A331B88181C0A2102F087FC031C3F
:1017800023803B1C0A331B88181C0A2102F0C2FC70
:101790000B1C9BB2DBB23033DAB23B1C10331A7035
:1017A000F9683A1C10323B1C08331B88B81D0088AE
:1017B0000090381C283000880190381C2C3000889C
:1017C0000290081C111C0522FFF7BEFEBD4607B0A3
:1017D00090BDC04680B584B000AFF860B9607A6053
:1017E000FB68181C00F010F8021C7968BB68CB1A63
:1017F000101C191C02F08EFC0B1C1A1CBB68D318A1
:10180000181CBD4604B080BD80B584B000AF7860C0
:101810000023FB60204B1B68002B32D11E4B0122A2
:101820001A607A68A4235B00D25880231B051340FA
:10183000DA0E7968A4235B00C9588023DB050B40CE
:101840009B0F5340FB60FB68DB43FB60FA6801239E
:101850001340FB607A68A4235B00D35859007A6870
:10186000A4235B00D1507A68A4235B00D258FB68A4
:10187000111C19437A68A4235B00D150064B002247
:101880001A607A68A4235B00D3585B015B09181CBB
:10189000BD4604B080BDC0465001001080B584B084
:1018A00000AF78607A68A4235B000021D1501EE06D
:1018B0000123FB6018E07B684533FF33181C1021BF
:1018C00000F0A4F8031C1A1CFB68111C99400B1CA7
:1018D0007968A42252008A58D1187A68A4235B0040
:1018E000D150FB680133FB60FB68102BE3DD7A68A5
:1018F000A4235B00D358002BDAD0BD4604B080BDD2
:1019000080B582B000AF786039607B68012B07D169
:101910003A68054B9A4203D1044B181C02F0D4FCE0
:10192000BD4602B080BDC046FFFF000004000010AD
:1019300080B500AF034B0120191CFFF7E1FFBD4646
:1019400080BDC046FFFF000080B582B000AF786068
:10195000084BD0221A60084BD0221A60074BD122C4
:101960001A60074B064A126838218A431A60BD463E
:1019700002B080BDA0400440944004409040044028
:101980000080015080B584B000AF78603B1C0E33FE
:1019900000221A801C4B1A68202313405A425341DC
:1019A000DBB2002B07D03B1C0E333A1C0E321288E0
:1019B00001210A431A80144B1A68102313405A421B
:1019C0005341DBB2002B07D03B1C0E333A1C0E32C6
:1019D000128802210A431A800B4B1A68082313400D
:1019E0005A425341DBB2002B07D03B1C0E333A1C4A
:1019F0000E32128804210A431A803B1C0E331B88C6
:101A0000181CBD4604B080BDFC3F015080B584B0B9
:101A100000AF786039603B1C0E3300221A803B68AF
:101A2000102B35D11E4B1E4A1268802189010A43B2
:101A30001A601C4B02221A601B4B1B4A12681021B1
:101A40008A431A60194B1A4A1A60184B174A1268CF
:101A500018490A431A60C046174B1B68DB43DB0F6B
:101A6000DBB2002BF8D1144B1B689B099AB23B1CCC
:101A70000E339205920D1A800B4B0B4A12681021FF
:101A80000A431A60064B064A11680C4A0A401A605B
:101A90003B1C0E331B88181CBD4604B080BDC046DD
:101AA00080800440784004403882044000C00140F7
:101AB000020B00000200000104C00140FFDFFFFF35
:101AC00090B587B002AF7860564B181C08210022F1
:101AD00001F068FF7B68181C00F0BEF97B68181CD9
:101AE000C02100F023FA7B68181C212100F036FA8F
:101AF0007B68181CC12100F019FA7B68181C1021A2
:101B000000F02CFA7B68181CC52100F00FFA7B68E6
:101B1000181C312100F022FA7B68181C3C2100F0CF
:101B20001DFA7B68181CC72100F000FA7B68181C9E
:101B3000C02100F013FA7B68181C362100F0F6F97A
:101B40007B68181C482100F009FA7B68181C3A21B0
:101B500000F0ECF97B68181C552100F0FFF97B6858
:101B6000181CB12100F0E2F97B68181C002100F07C
:101B7000F5F97B68181C1B2100F0F0F97B68181C34
:101B8000B62100F0D3F97B68181C002100F0E6F9BB
:101B90007B68181C822100F0E1F97B68181C272162
:101BA00000F0DCF97B68181C112100F0BFF900235C
:101BB000FB6002E0FB680133FB60FB681A4AD80F48
:101BC000D117041C9A424C41231CDBB2002BF1D1EB
:101BD0007B68181C292100F0A9F97B68181C2C21AE
:101BE00000F0A4F90023FB6002E0FB680133FB6016
:101BF000FB680E4AD80FD117041C9A424C41231C93
:101C0000DBB2002BF1D17B68A022520000920022AF
:101C10000192181C00210022F02300F09DF8BD461F
:101C200005B090BD54010010FF083D007F1A06006A
:101C300090B587B002AFF860081C111C1A1C3B1C41
:101C40000A3318803B1C08331980BB1D1A803B1CCB
:101C50000A331B8801339BB23A1C083212880132C6
:101C600094B2F8683A1C0A3211883A1C0832128879
:101C7000009400F0A5F9FA68BB1D1B88101C191C04
:101C800000F03CF9BD4605B090BDC04690B589B0A6
:101C900002AFF860081C111C1A1C3B1C0A33188088
:101CA0003B1C08331980BB1D1A803A1C0A32BB1D2D
:101CB00012881B88D3189BB2013B9BB2391C083198
:101CC0003A1C2832098812888A1892B2013A94B2D2
:101CD000F8683A1C0A3211883A1C083212880094BB
:101CE00000F06EF93B1C083300221A8028E03B1CF0
:101CF0000A3300221A8015E0FB6A9A1CFA623A1C29
:101D000016321B881380FA683B1C16331B88101C84
:101D1000191C00F0F3F83B1C0A331A883B1C0A33E9
:101D200001321A803A1C0A32BB1D12881B889A4263
:101D3000E2D33B1C08331A883B1C083301321A805B
:101D40003A1C08323B1C283312881B889A42CED397
:101D5000BD4607B090BDC04690B587B002AFF860F1
:101D6000081C111C1A1C3B1C0A3318803B1C08332E
:101D70001980BB1D1A803A1C0A32BB1D12881B88B1
:101D8000D3189BB2013B9BB2391C08313A1C20325C
:101D9000098812888A1892B2013A94B2F8683A1CFB
:101DA0000A3211883A1C08321288009400F008F9AF
:101DB0003B1C083300221A8021E03B1C0A3300221E
:101DC0001A800EE0FA683B1C24331B88101C191C77
:101DD00000F094F83B1C0A331A883B1C0A3301328A
:101DE0001A803A1C0A32BB1D12881B889A42E9D31A
:101DF0003B1C08331A883B1C083301321A803A1CFA
:101E000008323B1C203312881B889A42D5D3BD462A
:101E100005B090BD80B582B000AF7860044B044A35
:101E20001168044A0A401A60BD4602B080BDC0462F
:101E3000FC3F0050FFF7FFFF80B582B000AF786035
:101E4000044B044A1268802109010A431A60BD4606
:101E500002B080BDFC3F005090B585B000AF786007
:101E60000023FB60174B174A126820218A431A602F
:101E700002E0FB680133FB60FB68134AD80FD117FF
:101E8000041C9A424C41231CDBB2002BF1D10D4BB8
:101E90000C4A126820210A431A600023FB6002E00A
:101EA000FB680133FB60FB68074AD80FD117041C9D
:101EB0009A424C41231CDBB2002BF1D1BD4605B048
:101EC00090BDC046FC3F00501F4E000080B582B060
:101ED00000AF78600A1CBB1C1A807B68181CFFF7D7
:101EE00099FF054ABB1C1B88101C191C01F02EFE13
:101EF000BD4602B080BDC0465401001080B582B01E
:101F000000AF78600A1CBB1C1A807B68181CFFF7A6
:101F100093FF054ABB1C1B88101C191C01F016FE00
:101F2000BD4602B080BDC0465401001080B582B0ED
:101F300000AF78600A1CFB1C1A707B68181CFFF746
:101F400069FF054AFB1C1B78101C191C01F0B2FD2F
:101F5000BD4602B080BDC0465401001080B582B0BD
:101F600000AF78600A1CFB1C1A707B68181CFFF716
:101F700063FF054AFB1C1B78101C191C01F09AFD1D
:101F8000BD4602B080BDC0465401001080B582B08D
:101F900000AF7860BB1C19803B1C1A807A68BB1CA0
:101FA0001B88101C191CFFF791FF7A683B1C1B88CB
:101FB000101C191CFFF7A2FFBD4602B080BDC04631
:101FC00080B584B000AFF860081C111C1A1C3B1CC3
:101FD0000A3318803B1C08331980BB1D1A80FB682C
:101FE000181C2A21FFF7A2FFFA683B1C0A331B8842
:101FF000101C191CFFF782FFFA68BB1D1B88101C00
:10200000191CFFF77BFFFB68181C2B21FFF78EFFC5
:10201000FA683B1C08331B88101C191CFFF76EFF65
:10202000FA683B1C18331B88101C191CFFF766FF4D
:10203000FB68181C2C21FFF779FFBD4604B080BD5A
:1020400080B582B000AF786039607B68012B07D122
:102050003A68054B9A4203D1044B181C02F068F908
:10206000BD4602B080BDC046FFFF00005401001015
:1020700080B500AF034B0120191CFFF7E1FFBD46FF
:1020800080BDC046FFFF000080B500AF0B4B0022B3
:102090001A600B4B23221A600A4B0A4A12688021ED
:1020A0008A431A60084B01221A60084B03221A6007
:1020B000074B01221A60BD4680BDC04640800440E7
:1020C000088004403882044044800440708004400A
:1020D0007480044080B500AF184B184A1268184944
:1020E0000A431A60174BD1221A60174BD1221A608B
:1020F000164BD1221A60164BD1221A60154BD122F1
:102100001A60154BD1221A60144B144A126801212F
:102110000A431A60114B114A126806218A431A6059
:102120000F4B0F4A126801210A431A600C4B0C4AEC
:10213000126806218A431A60BD4680BD8080044033
:10214000400001006840044074400440784004406E
:102150007C4004408040044090400440A44004403F
:10216000A840044080B582B000AF154A154BD31A81
:102170009B103B6000237B6007E0124B7A68920063
:10218000D35898477B6801337B607A683B689A42F2
:10219000F3D30D4A0D4BD31A9B103B6000237B6099
:1021A00007E00A4B7A689200D35898477B6801335E
:1021B0007B607A683B689A42F3D3BD4602B080BD2B
:1021C000EC410000EC410000F8410000EC4100004F
:1021D00080B584B000AF1E4BFB601E4BBB601E4A37
:1021E0001C4BD31A7B6007E0BB685A1CBA60FA68C4
:1021F000511CF96012781A707B685A1E7A605A1E58
:102200009341DBB2002BEFD1144BBB60144A134B4C
:10221000D31A7B6004E0BB685A1CBA6000221A70B3
:102220007B685A1E7A605A1E9341DBB2002BF2D1B2
:10223000FFF72AFFFFF74EFFFFF794FF094B181C2B
:10224000FEF734FD01F068F801F07CF8FCE7C046C9
:10225000F0590000000000100400001004000010FD
:10226000100300100400001080B500AFFEE7C04668
:10227000F0B58FB004AFBB1D00221A703B1C273392
:1022800000221A703B1C263300221A703B1C253397
:1022900000221A703B1C243305221A7000233B6273
:1022A0000023FB610023BB6104237B613B1C1233D1
:1022B00002221A803B1C103301221A803B1C0F3370
:1022C00000221A7001233B60C64BF02200920022CC
:1022D0000192181C00210022F023FEF715FDC14ACF
:1022E000C14B28210091C149019100210291101C8C
:1022F000191C0A220A23FFF727F9BA4ABC4B3C21D2
:102300000091BA49019100210291101C191C0F2261
:102310000A23FFF719F9B34AB64B50210091B3498C
:10232000019100210291101C191C10220A23FFF7B1
:102330000BF9AC4AB04B64210091AC4901910021EA
:102340000291101C191C0B220A23FFF7FDF8A54A65
:10235000FA239B00101C191C01F05AFE00F08DFDA1
:102360000023BB61BB1D00221A709E4BA0225200AD
:10237000009200220192181C00210022F023FEF797
:10238000C3FC0023BB6009E0BB681A019B4BD31858
:10239000181C01F069FCBB680133BB607B690A2231
:1023A000D21ABB689A42EFDC944B181C002103221E
:1023B00001F0B8FC924B181C0F21032201F0B2FC73
:1023C000904B181C1E21032201F0ACFC8E4B181CF4
:1023D0002D21032201F0A6FC8C4B181C3C2103226A
:1023E00001F0A0FC8A4B181C4B21032201F09AFC3F
:1023F000884B181C5A21032201F094FC864B181CB0
:102400006921032201F08EFC844B181C78210322E1
:1024100001F088FC824B181C8721032201F082FC0A
:102420000023BB6009E0BB681A017E4BD318181C5F
:1024300001F05AFCBB680133BB60BB68092BF2DDBD
:102440000023BB6009E0BB681A01774BD318181C46
:1024500001F04AFCBB680133BB60BB68042BF2DDB2
:10246000604A724B9B214900009160490191002113
:102470000291101C191C05220523FFF765F87B69E2
:102480009BB20522D31A9AB256499B235B00574848
:10249000009000200190081C111C3C22FFF7FAF864
:1024A0003B1C24331B78BB6017E0BB689BB21A1C33
:1024B0001B01D31A9BB2F0339AB24A499B235B00AB
:1024C0000A2000905A480190081C111C1A1C0A236B
:1024D000FEF71AFCBB68013BBB60BB68002BE4DC69
:1024E000BB1D00221A703B1C273300221A703B1CB4
:1024F000253300221A7000233B620023BB613B1C82
:10250000123302221A804B4B181C01F0ADFB00F075
:1025100086FC484B181C01F0C9FB474B181CFFF701
:1025200031FA031C1A1C022313405A1E9341DBB2DA
:10253000002B1ED03F4B181C01F05EFE031C1A1C22
:10254000E421002391425B41DBB2002B11D0394BD7
:10255000181C01F051FE031C02339CB2354B181CB1
:1025600001F054FE031C334A101C211C1A1C01F0FC
:10257000D9FB314B181CFFF705FA031C1A1C012369
:1025800013405A1E9341DBB2002B1DD0294B181C5F
:1025900001F032FE031C01229A429B415B42DBB2F6
:1025A000002B11D0234B181C01F026FE031C023B0C
:1025B0009CB2204B181C01F029FE031C1D4A101C64
:1025C000211C1A1C01F0AEFB00F0F0FC031C5A1E8B
:1025D0009341DBB2002B00D192E03B1C2733002259
:1025E0001A7088E004000010884B0000FFFF000014
:1025F000944B0000A44B0000B84B000058010010A1
:102600006801001078010010880100109801001086
:10261000A8010010B8010010C8010010D801001076
:10262000E80100105802001008020010C44B00001E
:1026300061F80000F8010010480100103B1C27332E
:102640001B781A01A84BD318181C01F001FE031CBB
:102650005A425341DBB2002B46D03B1C27331B7838
:102660001A01A14BD318181C01F0FEFA3B1C2733AA
:102670001B781A019C4BD5189C4B181C01F0BCFD13
:10268000031C1C1C994B181C01F0CAFD031C5B08A1
:10269000DBB2E3189CB23B1C27331B781A01924B28
:1026A000D318181C01F0BCFD031C5B08DBB2E31A55
:1026B0009CB28E4B181C01F0A9FD031C1E1C3B1C78
:1026C00027331B781A01884BD318181C01F0B4FD6E
:1026D000031C5B08DBB2F31A9BB2281C211C1A1CDA
:1026E00001F020FBC0460BE03B1C27331A783B1C53
:1026F000273301321A703B1C27331B78042B9DD9DA
:102700003B1C273300221A70C1E03B1C27331B7887
:102710001A01754BD318181C01F078FD031C002B0F
:102720000DD03B1C27331B781A016F4BD318181C94
:1027300001F08EFD031C002B01D0012300E00023DB
:10274000002B00D184E03B1C27331B781A01664B19
:10275000D5183B1C27331B781A01634BD318181C60
:1027600001F04AFD031C1C1C3B1C27331B781A017B
:102770005D4BD318181C01F049FD031C023B9BB2B2
:10278000281C211C1A1C01F0CDFA3B1C2533002209
:102790001A7057E03B1C25331B781A01544BD5188F
:1027A0003B1C27331B781A014F4BD318181C01F020
:1027B00023FD031C1C1C3B1C27331B781A014A4BAE
:1027C000D318181C01F022FD031C281C211C1A1C04
:1027D00001F0EAFA031C5A1E9341DBB2002B2AD007
:1027E0003B1C25331B781A01414BD318181C01F0F0
:1027F0007BFA3B1C27331B781A013B4BD318181C60
:1028000001F072FA3B1C27331B781A01364BD318A0
:10281000181C01F0F1FC031C1C1C3B1C27331B780B
:102820001A01314BD318181C01F0F0FC031C201CBA
:10283000191C00F073FB3B1C25331A783B1C253315
:1028400001321A703B1C25331B78092BA2D917E0E3
:102850003B1C27331B781A01234BD318181C01F09B
:10286000F7FC031C5A1E9341DBB2002B08D03B1C23
:1028700027331B781A011C4BD318181C01F034FAAB
:102880003B1C27331A783B1C273301321A703B1C40
:1028900027331B78042B00D837E73B1C0F330A2261
:1028A0001A703B1C263300221A703EE13B1C263373
:1028B0001B781A010F4BD318181C01F0A7FC031C3E
:1028C0001A1C2C23FF339A4216D83B1C26331B7844
:1028D0001A01084BD318181C01F0BAFC031C002B7A
:1028E0000AD0012309E0C04608020010F8010010D8
:1028F00058010010580200100023002B00D1E9E01D
:102900003B1C26331B781A01AC4BD5183B1C2633D5
:102910001B781A01A94BD318181C01F06DFC031C7D
:102920001C1C3B1C26331B781A01A44BD318181C03
:1029300001F06CFC031C02339BB2281C211C1A1CE6
:1029400001F0F0F93B1C26331B781A019B4BD3187E
:10295000181C01F051FC031C1C1C3B1C26331B786B
:102960001A01964BD318181C01F05AFC031C5B0883
:10297000DBB2E3189CB23B1C26331B781A018F4B49
:10298000D318181C01F042FC031C1D1C3B1C2633F1
:102990001B781A01894BD318181C01F04DFC031C3D
:1029A0005B08DBB2EB189BB2854A101C211C1A1C79
:1029B00001F0FAF9031C5A1E9341DBB2002B00D13F
:1029C000ACE07F4B181C01F017FC031C1C1C7C4B5B
:1029D000181C01F01BFC031C201C191C00F09EFAA3
:1029E0003B1C24331A783B1C2433013A1A703B1CDD
:1029F00026331B781A01714BD318181C01F074F997
:102A00003B1C24331B78002B36D16E4BA022520086
:102A1000009200220192181C00210022F023FEF7F0
:102A200073F9684A684B642100916849019100215B
:102A30000291101C191C09222823FEF785FD614A0A
:102A4000634B782100916349019100210291101C90
:102A5000191C0F220823FEF777FD04E0594B181CC0
:102A60000A2101F0D5FA00F0A1FA031C5A425341A1
:102A7000DBB2002BF2D13CE2524A9B235B000A21DD
:102A8000009100210191101CA5211A1C7823FEF74A
:102A90003BF93B1C24331B78BB6017E0BB689BB23F
:102AA0001A1C1B01D31A9BB2F0339AB245499B23DF
:102AB0005B000A20009048480190081C111C1A1C59
:102AC0000A23FEF721F9BB68013BBB60BB68002B02
:102AD000E4DC23E03B1C26331B781A01374BD31868
:102AE000181C01F0B5FB031C5A1E9341DBB2002BEE
:102AF00008D03B1C26331B781A01304BD318181C06
:102B000001F0F2F83B1C0F331B78002B06D03B1C66
:102B10000F331A783B1C0F33013A1A703B1C2633D3
:102B20001A783B1C263301321A703B1C26331B7863
:102B3000092B00D8BAE600233B620023FB61012386
:102B4000BB613B1C253300221A7049E13B1C253335
:102B50001B781A01214BD318181C01F079FB031CB8
:102B60005A1E9341DBB2002B00D132E13B1C0F33E4
:102B70001A787B690A21CB1A9A4200DBA2E03B1C3F
:102B8000263300221A70FB1D00221A7090E03B1CB5
:102B900026331B781A01094BD318181C01F058FB77
:102BA000031C002B1CD1074B181C00213222FEF7FE
:102BB00011FE031C002B13D1012312E05802001058
:102BC000F801001004000010CC4B0000FFFF0000D3
:102BD000D84B0000E0FF000061F800005801001031
:102BE0000023002B5DD03B1C0F331A783B1C0F33A6
:102BF00001321A703B1C26331B781A01BE4BD318C6
:102C0000181C01F031F83B1C26331B781A01BA4B13
:102C1000D5183B1C25331B781A01B84BD318181C48
:102C200001F0EAFA031C1C1C3B1C25331B781A011B
:102C3000B24BD318181C01F0F3FA031C5B08DBB28B
:102C4000E3189CB23B1C27331B781A01AC4BD318FA
:102C5000181C01F0E5FA031C5B08DBB2E31A9CB216
:102C60003B1C25331B781A01A44BD318181C01F008
:102C7000CDFA031C1E1C3B1C27331B781A01A04BEA
:102C8000D318181C01F0D8FA031C5B08DBB2F31848
:102C90009BB2281C211C1A1C01F044F8FB1D0122C8
:102CA0001A703B1C26331A783B1C263301321A70EB
:102CB0003B1C26331B78092B04D8FB1D1B78002BEB
:102CC00000D164E70023BB613B1C25331B781A014C
:102CD0008A4BD5183B1C25331B781A01874BD31818
:102CE000181C01F089FA031C1A1C3B1C12331B88A8
:102CF000D3189CB23B1C25331B781A017F4BD31889
:102D0000181C01F083FA031C1A1C3B1C10331B888F
:102D1000D3189BB2281C211C1A1C01F003F83B1C81
:102D200025331B781A01754BD318181C01F064FA6F
:102D3000031C1C1C3B1C25331B781A016F4BD3183A
:102D4000181C01F06DFA031CF022D31AE117DA0FF8
:102D5000081C9C425041031CDBB2002B01D0012314
:102D60003B623B1C25331B781A01644BD318181C9B
:102D700001F042FA031C5A425341DBB2002B01D04E
:102D800001233B623B1C25331B781A015B4BD31894
:102D9000181C01F03BFA031CDC229A429B415B4267
:102DA000DBB2002B15D00123FB613B1C25331B78C4
:102DB0001A01524BD318181C01F028FA031C1A1CD4
:102DC0000221002391425B41DBB2002B01D00123A1
:102DD000FB613B1C25331A783B1C253301321A70EA
:102DE0003B1C25331B78092B00D8AFE63B6A002B30
:102DF00006D03B1C12333A1C1232128852421A80FF
:102E0000FB69002B06D03B1C10333A1C1032128891
:102E100052421A803B4B181C0F2101F0F9F8BB6994
:102E2000002B01D1FFF775FBBB69012B25D17B6915
:102E3000002B22DD7B69013B7B61324A324B9B21B7
:102E4000490000913149019100210291101C191C87
:102E500005220523FEF778FB7B699BB20522D31A76
:102E60009AB228499B235B002848009000200190DB
:102E7000081C111C3C22FEF70DFC7B69002B01DDB8
:102E8000FFF76EFA1F4BA022520000921F22019200
:102E9000181C00210022F023FDF736FF194A1C4BB5
:102EA000642100911B4901911F210291101C191CE2
:102EB00008222823FEF748FB124A174B782100917D
:102EC000144901911F210291101C191C0F22082383
:102ED000FEF73AFB04E00B4B181C0A2101F098F8AE
:102EE00000F064F8031C5A425341DBB2002BF2D1CC
:102EF000C046BD460BB0F0BD58020010580100108E
:102F00000802001004000010C44B0000FFFF000086
:102F1000E84B0000E0FF0000D84B000090B589B0FE
:102F200002AF0A1CBB1D011C19803B1D1A80BB1D72
:102F30001B88053B9AB23B1D1B88063B9BB2381C85
:102F4000083017490A2400940C24019400F064FE10
:102F50003B1C0833181C00F087FE124AFA23DB00E2
:102F6000101C191C322200F07FFC0F4B181C322160
:102F700001F04EF80B4AFA235B00101C191C322298
:102F800000F072FC084B181C322101F041F83B1C88
:102F90000833181C00F0A8FEBD4607B090BDC0461F
:102FA000FC4D0000440100100400001080B500AF8B
:102FB0000F4B181CFEF7E6FC031C1A1C04231340DD
:102FC0005A1E9341DBB2002B0AD00A4B1B68002B20
:102FD00004D1084B01221A60012305E0002303E01D
:102FE000044B00221A600023181CBD4680BDC04659
:102FF00048010010F802001090B585B002AF78606B
:1030000039607B68012B00D040E13A68A14B9A42BD
:1030100000D03BE1A04CA14B0A2200920C2201926D
:10302000201C191C0322032300F0F6FD10349B4BD7
:103030000A2200920C220192201C191C1722032341
:1030400000F0EAFD1034954B0A2200920C22019206
:10305000201C191C2B22032300F0DEFD10348F4BA3
:103060000A2200920C220192201C191C3F220323E9
:1030700000F0D2FD1034894B0A2200920C220192FA
:10308000201C191C5322032300F0C6FD1034834B6F
:103090000A2200920C220192201C191C6722032391
:1030A00000F0BAFD10347D4B0A2200920C220192EE
:1030B000201C191C7B22032300F0AEFD1034774B3B
:1030C0000A2200920C220192201C191C8F22032339
:1030D00000F0A2FD1034714B0A2200920C220192E2
:1030E000201C191CA322032300F096FD221C103281
:1030F0006A4B0A2100910C210191101C191CB72266
:10310000032300F089FD6649664A91235B000A208B
:10311000009006200190081C111C782200F07CFD14
:10312000614C624B0522009208220192201C191C5E
:103130000022002300F070FD10345C4B0522009249
:1031400008220192201C191C0022002300F064FDBB
:103150001034564B0522009208220192201C191CA3
:103160000022002300F058FD1034504B052200923D
:1031700008220192201C191C0022002300F04CFDA3
:10318000221C1032494B0521009108210191101C8D
:10319000191C0022002300F03FFD454C454B052241
:1031A000009208220192201C191C0022002300F02A
:1031B00033FD10343F4B0522009208220192201C5F
:1031C000191C0022002300F027FD1034394B052282
:1031D000009208220192201C191C0022002300F0FA
:1031E0001BFD1034334B0522009208220192201C53
:1031F000191C0022002300F00FFD10342D4B052276
:10320000009208220192201C191C0022002300F0C9
:1032100003FD1034274B0522009208220192201C46
:10322000191C0022002300F0F7FC1034214B05226A
:10323000009208220192201C191C0022002300F099
:10324000EBFC10341B4B0522009208220192201C3B
:10325000191C0022002300F0DFFC1034154B05225E
:10326000009208220192201C191C0022002300F069
:10327000D3FC221C10320F4B052100910821019133
:10328000101C191C0022002300F0C6FCBD4603B030
:1032900090BDC046FFFF000058010010F44B000035
:1032A000F8010010E44C0000080200105C4D000022
:1032B00058020010AC4D000080B500AF034B012058
:1032C000191CFFF799FEBD4680BDC046FFFF0000F8
:1032D00080B500AF0D4B1B685A1C0C4B1A600B4B92
:1032E0001A68FA239B009A4208DD094B084A1268C3
:1032F00080214A401A60054B00221A60054B181CB9
:1033000000210122FEF766FABD4680BD00030010D1
:10331000FC3F00500400001080B500AF064B064A89
:10332000126880210A431A60044A054B101C191CBC
:1033300000F022FEBD4680BD008000500400001059
:10334000D132000080B586B004AF00237B60494BCA
:10335000A0225200009200220192181C002100229B
:10336000F023FDF7D1FC434A434B322100914349FE
:10337000019100210291101C191C05225023FEF717
:10338000E3F83C4A3E4B462100913C490191002123
:103390000291101C191C05225023FEF7D5F8354A5E
:1033A000384B5A2100913549019100210291101C9E
:1033B000191C05225023FEF7C7F82E4A324B7821FC
:1033C00000913249019100210291101C191C0E221A
:1033D0000523FEF7B9F8274A2D4B8C2100912D4982
:1033E000019100210291101C191C10220523FEF7E7
:1033F000ABF8204A284BC8210091284901910021AF
:103400000291101C191C12220523FEF79DF8244975
:10341000244A254B081C111C1A1C322300F07AFA8E
:1034200022E0224B181CFEF7ADFA031C013B5A4266
:103430005341DBB2002B03D001237B60FCF740FE3D
:103440001A4B181CFEF79EFA031C023B5A425341CA
:10345000DBB2002B03D001237B60FEF709FF054B95
:10346000181C642100F0D4FD7B68002BD9D0BD4628
:1034700002B080BD04000010EC4E0000E0FF000030
:10348000F44E0000FC4E0000044F0000E7F900007D
:10349000144F0000E31F0000284F0000FFFF000052
:1034A0004401001060580000285900004801001035
:1034B00080B582B000AF7860324B7A681A60002322
:1034C000796890228B5079688C228B50796894228D
:1034D0008B5000237A6853607A6813607A6893602F
:1034E000294B294A126829490A431A60284B284A5D
:1034F000126801210A431A60254B254A12680621E9
:103500008A431A60234B234A126801210A431A6036
:10351000204B204A126806218A431A601A4B1A4A25
:103520001268802149010A431A601B4B01221A606C
:103530001A4B1A4A126880210A431A60184B10224B
:103540001A60184B38221A60174B01221A60134B6D
:10355000124A126880218A431A60104B0F4A12687F
:1035600003210A431A60104B07221A600F4B0F4ABF
:103570001268802189030A431A6062B6BD4602B010
:1035800080BDC0460403001080800440400001005C
:10359000A4400440A8400440988004400C800040AF
:1035A00028800040008000400480004000E100E0EE
:1035B00080B582B000AF78600A1CFB1C1A700D4BFE
:1035C0001A68402313405A1E9341DBB2002B04D0EB
:1035D000094BFA1C12781A6008E07A687968FB1CBB
:1035E0001B78081C111C1A1C00F070F8BD4602B0B4
:1035F00080BDC046148000400080004080B582B08D
:1036000000AF78607B688C337A68101C191C00F05E
:1036100087F8031C181CBD4602B080BD80B586B07B
:1036200000AF786039600A237B613B1C08330022BD
:10363000DA723B68002B07DA3B1C08332D221A7024
:103640003B685B423B601CE03B1C08332B221A703A
:1036500017E03B68181C0A2100F0BCFD0B1CDBB214
:103660003033DAB2391C08317B69CB181A703B68E9
:10367000181C0A2100F058FD031C3B607B69013BCC
:103680007B617B69002BE4DC7A683B1C0833101CEF
:10369000191C00F003F8BD4606B080BD80B582B0AD
:1036A00000AF7860396009E03B681B787A68101CCD
:1036B000191CFFF77DFF3B6801333B603B681B78BB
:1036C000002BF1D1BD4602B080BDC04680B584B0AC
:1036D00000AFF860B960FB1D1A70BB689A687F2163
:1036E000002391425B41DBB2002B16D072B6BB685F
:1036F0009B685A1CBB689A60BB681A68B968082343
:103700008A18D318FA1D12781A71BB681B685A1CE4
:103710007F231A40BB681A6062B6BD4604B080BD04
:1037200080B584B000AF786039603B1C0F33002255
:103730001A703B689B685A1E9341DBB2002B17D06E
:1037400072B63B689B685A1E3B689A603B68596832
:103750003B1C0F333868082241188A1812791A70F6
:103760003B685B685A1C7F231A403B685A6062B60C
:103770003B1C0F331B78181CBD4604B080BDC046EF
:1037800090B583B000AF174B1B687B607A68042349
:1037900013400DD0144B1968134B1B681A1C8C3244
:1037A000124B1B68DBB2081C111C1A1CFFF78EFFA2
:1037B0007A680223134012D00B4B1B689B685A1E79
:1037C0009341DBB2002B0AD0084C074B1A68064B1A
:1037D0001B68101C191CFFF7A3FF031C2360BD46C8
:1037E00003B090BD0880004004030010008000403A
:1037F00080B582B000AF7860124B7A681A607B683F
:1038000000221A60104B104A12688021C9000A4336
:103810001A600E4B83221A600D4B0E4A1A600E4B33
:103820000C4A1A600D4B8022D2001A600C4B012208
:103830001A600C4B0B4A126801210A431A60BD46FC
:1038400002B080BD08030010808004407C4004402A
:103850001880014080BB000024800140148001409A
:10386000748001400480014080B586B000AFF860EC
:10387000B9607A600D4B00221A600D48B96800F0FB
:1038800005FC031C7B610B4B7A691A600A4B7A6951
:1038900052101A60094B00221A60044B01221A6070
:1038A000FB687A681A60BD4606B080BD048001409E
:1038B000006CDC0224800140188001400880014037
:1038C00080B500AF074B00221A60074BFA22920026
:1038D0001A60064BFA2292001A60054B00221A6009
:1038E000BD4680BD04800140248001401880014015
:1038F0000880014080B582B000AF78607B681B68AB
:10390000002B01D0012300E00023181CBD4602B0AB
:1039100080BDC04680B586B000AFF860B9607A60FF
:103920003B6000237B611DE0C046FB68181CFFF76D
:10393000E1FF031C5A1E9341DBB2002BF5D17B69DA
:103940009B00BA68D3181A687B699B007968CB180A
:103950001B68F968081C111C1A1CFFF785FF7B699E
:1039600001337B617A693B689A42DDDBBD4606B074
:1039700080BDC04680B500AF094B1B681B68002B9B
:103980000BD0074B1B681A68013A1A60044B1B687E
:103990001B68002B01D1FFF793FFBD4680BDC046D9
:1039A0000803001080B586B000AFF860B9607A6097
:1039B000324B324A126832490A431A60314B1022A4
:1039C0001A60314B304A126804210A431A602F4BA7
:1039D0002E4A126804210A431A602B4B2A4A1268A5
:1039E000822109010A431A60284B284A1268822161
:1039F00009010A431A60264B00221A60254B122245
:103A00001A60254B11221A60244B11221A601B4B9D
:103A10001A4A1268802109010A431A60204B204A81
:103A2000126801218A431A601D4B1D4A1268012148
:103A30000A431A601B4B01221A601B4B02221A60B8
:103A40001A4BBA68511E7A6892018A181A60184B8C
:103A500002221A6000237B6109E0FB68181C002128
:103A600000F028F8031C3B617B6901337B617B69B3
:103A70001F2BF2DDBD4606B080BDC04680800440ED
:103A8000400001001C40044000800050FC3F0050FA
:103A9000B04004406840044060400440644004403A
:103AA000048004409480044010000440000004405E
:103AB0000400044080B584B000AF78600A1CFB1C91
:103AC0001A701E4BFB601E4B1D4A126804218A436C
:103AD0001A60C0461B4B1A681023134006D0FB68BF
:103AE0005A1EFA60002B01D0012300E00023002BB6
:103AF000F0D1154BFA1C12781A60104BFB60C046CF
:103B0000104B1A681023134006D0FB685A1EFA6047
:103B1000002B01D0012300E00023002BF0D10A4B41
:103B20001B68BB60064B064A126804210A431A60F0
:103B3000BB68DBB2181CBD4604B080BD40420F001C
:103B4000FC3F00500C0004400800044080B584B0E5
:103B500000AF78600A1CBB1C1A802B4BFB602B4B00
:103B60002A4A126804218A431A60C046284B1A6800
:103B70001023134006D0FB685A1EFA60002B01D0B8
:103B8000012300E00023002BF0D1224BBA1C128845
:103B900012121A601C4BFB60C0461D4B1A681023A2
:103BA000134006D0FB685A1EFA60002B01D0012397
:103BB00000E00023002BF0D1164BBA1C1188FF2225
:103BC0000A401A60104BFB60C046114B1A68102364
:103BD000134006D0FB685A1EFA60002B01D0012367
:103BE00000E00023002BF0D10A4B1B68BB60074BA1
:103BF000064A126804210A431A60BB68DBB2181C2B
:103C0000BD4604B080BDC04640420F00FC3F00509E
:103C10000C0004400800044080B584B000AFF86098
:103C2000B960111C1A1CBB1D19803B1D1A80FB6852
:103C3000BA1D12881A81FB683A1D12885A81FB68E6
:103C40003A1C183212881A80FB683A1C1C321288FF
:103C50005A80FB68BA685A60FB6800221A73FB68D6
:103C6000181CBD4604B080BDB0B584B002AF78600A
:103C70007B681B7B002B10D17B6819897B685A8974
:103C80007B681C887B685D887B685868064B00955C
:103C90000190181C231CFDF731FC7B6801221A736C
:103CA000BD4602B0B0BDC04604000010B0B584B03F
:103CB00002AF78607B681B7B002B10D07B68198972
:103CC0007B685A897B681C887B685D887B6858683C
:103CD000044B00950190181C231CFDF70FFCBD46FA
:103CE00002B0B0BD0400001090B585B002AF78609E
:103CF0007B681B7B002B0DD07B6819897B685A89F8
:103D00007B681B88786844880548009400240194E7
:103D1000FCF7FAFF7B6800221A73BD4603B090BD22
:103D200004000010B0B584B002AF7860BB1C1980ED
:103D30003B1C1A807B681B7B002B27D07B68198972
:103D40007B685A897B681B8878684488154800948A
:103D500000240194FCF7D8FF7B68BA1C12881A81F2
:103D60007B683A1C12885A817B6819897B685A895A
:103D70007B681C887B685D887B685868094B009568
:103D80000190181C231CFDF7B9FB07E07B68BA1CE7
:103D900012881A817B683A1C12885A81BD4602B08B
:103DA000B0BDC0460400001080B582B000AF78609E
:103DB000BB1C19803B1C1A807B681B7B002B01D12C
:103DC000002324E07B681B89BA1C12889A421DD309
:103DD000BB1C1A887B681B89191C7B681B88CB1845
:103DE0009A4213DA7B685B893A1C12889A420BD399
:103DF0003B1C1A887B685B89191C7B685B88CB1825
:103E00009A4201DA012302E0002300E00023181C9B
:103E1000BD4602B080BDC04680B582B000AF7860BC
:103E2000BB1C19803B1C1A807B681B7B002B01D1BB
:103E300000236AE07B685B893A1C12889A4211D1A0
:103E40007B681B89BA1C12889A420BD3BB1C1A8848
:103E50007B681B89191C7B681B88CB189A4201DA86
:103E6000012352E07B681B89BA1C12889A4211D147
:103E70007B685B893A1C12889A420BD33B1C1A88D8
:103E80007B685B89191C7B685B88CB189A4201DAD6
:103E900002233AE03B1C1A887B685B89191C7B680B
:103EA0005B88CB18013B9A4211D17B681B89BA1CF5
:103EB00012889A420BD3BB1C1A887B681B89191C79
:103EC0007B681B88CB189A4201DA03231DE0BB1CD8
:103ED0001A887B681B89191C7B681B88CB18013BDF
:103EE0009A4211D17B685B893A1C12889A420BD3A3
:103EF0003B1C1A887B685B89191C7B685B88CB1824
:103F00009A4201DA042300E00023181CBD4602B0E7
:103F100080BDC04680B584B000AF7860114B7A6830
:103F20001A600023FB6009E07A68FB689B00D318E5
:103F3000043300221A60FB680133FB60FB68072B27
:103F4000F2DD094B084A126807210A431A60074B41
:103F5000074A1A60074B05221A6062B6BD4604B0D4
:103F600080BDC0460C03001010E000E014E000E04B
:103F70007FBB000018E000E080B584B000AF78603F
:103F800039600023FB6013E07A68FB689B00D3185C
:103F900004331B68002B08D17A68FB689B00D31898
:103FA00004333A681A60002307E0FB680133FB60C2
:103FB000FB68072BE8DD01235B42181CBD4604B0FB
:103FC00080BDC04680B584B000AF78603960002302
:103FD000FB6014E07A68FB689B00D31804331A680E
:103FE0003B689A4208D17A68FB689B00D318043377
:103FF00000221A60002307E0FB680133FB60FB68C6
:10400000072BE7DD01235B42181CBD4604B080BDD1
:1040100080B582B000AF786039603B68002B09D072
:104020007B6800221A6000E030BF7B681A683B683A
:104030009A42F9D3BD4602B080BDC04680B582B079
:1040400000AF114B1B681A6801321A6000237B60B5
:1040500013E00D4B1A687B689B00D31804331B6870
:10406000002B07D0084B1A687B689B00D3180433D9
:104070001B6898477B6801337B607B68072BE8DD12
:10408000BD4602B080BDC0460C030010002934D0EC
:104090000123002210B488422CD301242407A1421A
:1040A00004D2814202D209011B01F8E7E400A142D7
:1040B00004D2814202D249005B00F8E7884201D372
:1040C000401A1A434C08A04202D3001B5C0822434A
:1040D0008C08A04202D3001B9C082243CC08A042BB
:1040E00002D3001BDC082243002803D01B0901D0A7
:1040F0000909E3E7101C10BC7047002801D000201C
:10410000C04307B4024802A14018029003BDC04654
:10411000D90000000029F0D003B5FFF7B9FF0EBCAD
:104120004243891A1847C046002941D010B4041CE4
:104130004C40A44601230022002900D54942002812
:1041400000D5404288422CD301242407A14204D246
:10415000814202D209011B01F8E7E400A14204D226
:10416000814202D249005B00F8E7884201D3401A3D
:104170001A434C08A04202D3001B5C0822438C085F
:10418000A04202D3001B9C082243CC08A04202D3C9
:10419000001BDC082243002803D01B0901D00909B9
:1041A000E3E7101C6446002C00D5404210BC704769
:1041B000002806D003DB0020C043400801E0802037
:1041C000000607B4024802A14018029003BDC04691
:1041D000190000000029EBD003B5FFF7A7FF0EBCC4
:1041E0004243891A1847C0467047C046311900003B
:0841F00071200000B93200004B
:1041F80080B582B000AF78607B681B89181CBD460B
:0442080002B080BDC3
:10420C0080B582B000AF78607B685B89181CBD46B6
:04421C0002B080BDAF
:1042200080B582B000AF78607B681B88DBB2181C59
:08423000BD4602B080BDC0468E
:1042380080B582B000AF78607B685B88DBB2181C01
:08424800BD4602B080BDC04676
:1042500080B582B000AF78607B681B7B181CBD46C0
:0442600002B080BD6B
:1042640080B582B000AF78607B68181CBD4602B090
:0442740080BDC04603
:1042780080B582B000AF78607B68181CBD4602B07C
:0442880080BDC046EF
:10428C0080B582B000AF78607B68181CBD4602B068
:04429C0080BDC046DB
:1042A00080B582B000AF78607B68181CBD4602B054
:0442B00080BDC046C7
:1042B40080B582B000AF78607B68181CBD4602B040
:0442C40080BDC046B3
:1042C80080B582B000AF78607B68181CFFF7D0FF1C
:1042D8007B682433181CFFF7C1FF7B683D33FF332D
:1042E800181CFFF7CFFF7B684133FF33181CFFF71B
:1042F800D3FF7B684533FF33181CFFF7D7FF7B6874
:08430800181CBD4602B080BD87
:1043100080B582B000AF786039603B68002B02DA6C
:104320003B685B4200E03B68181CBD4602B080BDA4
:1043300080B582B000AF78607B68181CBD4602B0C3
:0443400080BDC04636
:1043440042726963690000004C6576656C00000088
:1043540047414D45204F564552000000466972655D
:1043640020746F20726573746172740056494354EB
:104374004F5259210000000001000100010001001A
:104384000100010001000100010001000100010021
:104394000100010001000100010001000100010011
:1043A40001000100010001000100E6FFE6FFE6FF55
:1043B400E6FFE6FFE6FFE6FFE6FFE6FFE6FFE6FFD1
:1043C400E6FFE6FFE6FFE6FFE6FFE6FFE6FFE6FFC1
:1043D400E6FFE6FFE6FF01000100E6FFE6FFE6FF79
:1043E400E6FFE6FFE6FFE6FFE6FFE6FFE6FFE6FFA1
:1043F400E6FFE6FFE6FFE6FFE6FFE6FFE6FFE6FF91
:10440400E6FFE6FFE6FF01000100E6FFE6FFE6FF48
:10441400E6FFE6FFE6FFE6FFE6FFE6FFE6FFE6FF70
:10442400E6FFE6FFE6FFE6FFE6FFE6FFE6FFE6FF60
:10443400E6FFE6FFE6FF01000100E6FFE6FFE6FF18
:10444400E6FFE6FFE6FFE6FFE6FFE6FFE6FFE6FF40
:10445400E6FFE6FFE6FFE6FFE6FFE6FFE6FFE6FF30
:10446400E6FFE6FFE6FF01000100E6FFE6FFE6FFE8
:10447400E6FFE6FFE6FFE6FFE6FFE6FFE6FFE6FF10
:10448400E6FFE6FFE6FFE6FFE6FFE6FFE6FFE6FF00
:10449400E6FFE6FFE6FF01000100E6FFE6FFE6FFB8
:1044A400E6FFE6FFE6FFE6FFE6FFE6FFE6FFE6FFE0
:1044B400E6FFE6FFE6FFE6FFE6FFE6FFE6FFE6FFD0
:1044C400E6FFE6FFE6FF01000100E6FFE6FFE6FF88
:1044D400E6FFE6FFE6FFE6FFE6FFE6FFE6FFE6FFB0
:1044E400E6FFE6FFE6FFE6FFE6FFE6FFE6FFE6FFA0
:1044F400E6FFE6FFE6FF01000100E6FFE6FFE6FF58
:10450400E6FFE6FFE6FFE6FFE6FFE6FFE6FFE6FF7F
:10451400E6FFE6FFE6FFE6FFE6FFE6FFE6FFE6FF6F
:10452400E6FFE6FFE6FF01000100010001000100D3
:10453400010001000100010001000100010001006F
:10454400010001000100010001000100010001005F
:10455400010001000100010001000100010001004F
:10456400010001000100010001000100010001003F
:10457400010001000100010001000100010001002F
:1045840001000100010001000100C32FC32FC32F4C
:10459400C32FC32FC32FC32FC32FC32FC32FC32F87
:1045A400C32FC32FC32FC32FC32FC32FC32FC32F77
:1045B400C32FC32FC32F01000100C32FC32FC32F49
:1045C400C32FC32FC32FC32FC32FC32FC32FC32F57
:1045D400C32FC32FC32FC32FC32FC32FC32FC32F47
:1045E400C32FC32FC32F01000100C32FC32FC32F19
:1045F400C32FC32FC32FC32FC32FC32FC32FC32F27
:10460400C32FC32FC32FC32FC32FC32FC32FC32F16
:10461400C32FC32FC32F01000100C32FC32FC32FE8
:10462400C32FC32FC32FC32FC32FC32FC32FC32FF6
:10463400C32FC32FC32FC32FC32FC32FC32FC32FE6
:10464400C32FC32FC32F01000100C32FC32FC32FB8
:10465400C32FC32FC32FC32FC32FC32FC32FC32FC6
:10466400C32FC32FC32FC32FC32FC32FC32FC32FB6
:10467400C32FC32FC32F01000100C32FC32FC32F88
:10468400C32FC32FC32FC32FC32FC32FC32FC32F96
:10469400C32FC32FC32FC32FC32FC32FC32FC32F86
:1046A400C32FC32FC32F01000100C32FC32FC32F58
:1046B400C32FC32FC32FC32FC32FC32FC32FC32F66
:1046C400C32FC32FC32FC32FC32FC32FC32FC32F56
:1046D400C32FC32FC32F01000100C32FC32FC32F28
:1046E400C32FC32FC32FC32FC32FC32FC32FC32F36
:1046F400C32FC32FC32FC32FC32FC32FC32FC32F26
:10470400C32FC32FC32F01000100010001000100CA
:10471400010001000100010001000100010001008D
:10472400010001000100010001000100010001007D
:10473400010001000100010001000100010001006D
:10474400010001000100010001000100010001005D
:10475400010001000100010001000100010001004D
:10476400010001000100010001005F1E5F1E5F1EC9
:104774005F1E5F1E5F1E5F1E5F1E5F1E5F1E5F1E4D
:104784005F1E5F1E5F1E5F1E5F1E5F1E5F1E5F1E3D
:104794005F1E5F1E5F1E010001005F1E5F1E5F1E25
:1047A4005F1E5F1E5F1E5F1E5F1E5F1E5F1E5F1E1D
:1047B4005F1E5F1E5F1E5F1E5F1E5F1E5F1E5F1E0D
:1047C4005F1E5F1E5F1E010001005F1E5F1E5F1EF5
:1047D4005F1E5F1E5F1E5F1E5F1E5F1E5F1E5F1EED
:1047E4005F1E5F1E5F1E5F1E5F1E5F1E5F1E5F1EDD
:1047F4005F1E5F1E5F1E010001005F1E5F1E5F1EC5
:104804005F1E5F1E5F1E5F1E5F1E5F1E5F1E5F1EBC
:104814005F1E5F1E5F1E5F1E5F1E5F1E5F1E5F1EAC
:104824005F1E5F1E5F1E010001005F1E5F1E5F1E94
:104834005F1E5F1E5F1E5F1E5F1E5F1E5F1E5F1E8C
:104844005F1E5F1E5F1E5F1E5F1E5F1E5F1E5F1E7C
:104854005F1E5F1E5F1E010001005F1E5F1E5F1E64
:104864005F1E5F1E5F1E5F1E5F1E5F1E5F1E5F1E5C
:104874005F1E5F1E5F1E5F1E5F1E5F1E5F1E5F1E4C
:104884005F1E5F1E5F1E010001005F1E5F1E5F1E34
:104894005F1E5F1E5F1E5F1E5F1E5F1E5F1E5F1E2C
:1048A4005F1E5F1E5F1E5F1E5F1E5F1E5F1E5F1E1C
:1048B4005F1E5F1E5F1E010001005F1E5F1E5F1E04
:1048C4005F1E5F1E5F1E5F1E5F1E5F1E5F1E5F1EFC
:1048D4005F1E5F1E5F1E5F1E5F1E5F1E5F1E5F1EEC
:1048E4005F1E5F1E5F1E0100010001000100010048
:1048F40001000100010001000100010001000100AC
:10490400010001000100010001000100010001009B
:104914000100010001000100FFFFFFFFFFFFFFFF97
:10492400FFFFFFFFFFFFFFFFFFFFFFFFFFFFFFFF93
:10493400FFFFFFFFFFFFFFFFFFFFFFFFFFFFFFFF83
:10494400FFFFFFFFFFFFFFFFFFFFFFFFFFFFFFFF73
:10495400FFFFFFFFFFFFFFFFFFFFFFFFFFFFFFFF63
:10496400FFFFFFFFFFFFFFFFFFFFFFFFFFFFFFFF53
:10497400FFFFFFFFFFFFFFFFFFFFFFFFFFFFFFFF43
:10498400FFFFFFFFFFFFFFFFFFFFFFFFFFFFFFFF33
:104994000000FFFF0000FFFFFFFFFFFF0000FFFF1D
:1049A40000000000000000000000005F000000079D
:1049B400000700147F147F14242A7F2A122313086B
:1049C400646236495522500005030000001C224150
:1049D400000041221C00082A1C2A0808083E080876
:1049E400005030000008080808080060600000203B
:1049F400100804023E5149453E00427F4000426196
:104A04005149462141454B311814127F1027454521
:104A140045393C4A49493001710905033649494938
:104A240036064949291E0036360000005636000075
:104A3400000814224114141414144122140800020E
:104A440001510906324979413E7E1111117E7F4997
:104A54004949363E414141227F4141221C7F494917
:104A640049417F090901013E414151327F0808084B
:104A74007F00417F41002040413F017F08142241D3
:104A84007F404040407F0204027F7F0408107F3E45
:104A94004141413E7F090909063E4151215E7F099A
:104AA400192946464949493101017F01013F4040E6
:104AB400403F1F2040201F7F2018207F63140814CC
:104AC400630304780403615149454300007F414175
:104AD400020408102041417F000004020102044046
:104AE40040404040000102040020545454787F4860
:104AF4004444383844444420384444487F38545467
:104B04005418087E090102081454543C7F08040414
:104B14007800447D40002040443D00007F1028443C
:104B240000417F40007C041804787C080404783831
:104B3400444444387C14141408081414187C7C0865
:104B44000404084854545420043F4440203C40404A
:104B5400207C1C2040201C3C4030403C4428102831
:104B6400440C5050503C4464544C440008364100BA
:104B740000007F0000004136080008082A1C0808CD
:104B84001C2A08084D43552047616C616761000089
:104B94004F6E6C792035206D697373696C65730091
:104BA40063616E20626520696E20666C6967687453
:104BB400000000006174206F6E652074696D6500EB
:104BC4004C6576656C00000047414D45204F5645C5
:104BD400520000004669726520746F207265737418
:104BE40061727400564943544F5259210000000029
:104BF40000000000000000000000000000000000B1
:104C0400000000000000000000000000E0FFE0FFE2
:104C14000000000000000000000000000000E0FFB1
:104C2400E0FFE0FFE0FF0000000000000000E0FF04
:104C3400E0FF0000E0FFE0FF0000E0FFE0FF000015
:104C44000000E0FFE0FF0000E0FFE0FF0000E0FF05
:104C5400E0FF00000000E0FFE0FFE0FFE0FFE0FF16
:104C6400E0FFE0FFE0FF00000000E0FFE0FFE0FF06
:104C7400E0FFE0FFE0FFE0FFE0FF000000000000D5
:104C8400E0FFE0FF00000000E0FFE0FF00000000A4
:104C940000000000E0FFE0FF00000000E0FFE0FF94
:104CA400000000000000E0FFE0FF00000000000042
:104CB4000000E0FFE0FF0000E0FFE0FFE0FF000095
:104CC400000000000000E0FFE0FFE0FF0000000043
:104CD40000000000000000000000000000000000D0
:104CE40000000000000000000000000000000000C0
:104CF400000000000000000000000000FFFFFFFFB4
:104D0400000000000000000000000000000000009F
:104D1400FFFFFFFF00000000000000000000FFFF95
:104D2400FFFFFFFFFFFFFFFFFFFFFFFFFFFF00008D
:104D3400FFFFFFFFFFFFFFFFFFFFFFFFFFFFFFFF7F
:104D4400FFFFFFFFFFFFFFFFFFFFFFFFFFFFFFFF6F
:104D5400FFFFFFFFFFFFFFFF00000000E007000070
:104D640000000000E007E007E00700000000E007A3
:104D7400E007E00700000000E007E007E0070000AC
:104D84000000E007E007E0070000E007E007E007B5
:104D9400E007E007E007E007E007E007E0070000BE
:104DA4000000E0FF0000000000000000E0FF000041
:104DB40000001F001F001F001F001F001F001F0016
:104DC4001F001F001F0000001F001F001F00000025
:104DD40000001F001F001F00000000001F001F0034
:104DE4001F00000000001F001F001F000000000043
:104DF40000001F0000000000000000000000000090
:104E040000F800F8000000000000000000F80000B6
:104E14000000000000F800F800000000000000F8A6
:104E2400000000F80000000000F800F80000000096
:104E340000F800000000000000F8000000F800F88E
:104E4400000000F80000000000000000000000F86E
:104E540000F800F800F800000000000000F800F876
:104E640000F800F800F800F800F800F800F800F87E
:104E740000F800F800F800F800F800F800F800F86E
:104E840000F800F800000000000000F800F800F846
:104E940000F80000000000000000000000F800001E
:104EA40000F800F8000000F800000000000000F81E
:104EB4000000000000F800F80000000000F8000006
:104EC40000F800000000000000F800F800000000F6
:104ED400000000F8000000000000000000F800F8E6
:104EE40000000000000000004272656164000000E0
:104EF400426F61726400000047616D6573210000B8
:104F04004C65667420666F722042726963690000A2
:104F1400526967687420666F722047616C616761CB
:104F2400000000007765623A696F70726F672E63E4
:104F34006F6D2F6262670000010001000100010033
:104F44000100010001000100010001000100010055
:104F54000100010001000100010001000100010045
:104F640001000100010001000100E6FFE6FFE6FF89
:104F7400E6FFE6FFE6FFE6FFE6FFE6FFE6FFE6FF05
:104F8400E6FFE6FFE6FFE6FFE6FFE6FFE6FFE6FFF5
:104F9400E6FFE6FFE6FF01000100E6FFE6FFE6FFAD
:104FA400E6FFE6FFE6FFE6FFE6FFE6FFE6FFE6FFD5
:104FB400E6FFE6FFE6FFE6FFE6FFE6FFE6FFE6FFC5
:104FC400E6FFE6FFE6FF01000100E6FFE6FFE6FF7D
:104FD400E6FFE6FFE6FFE6FFE6FFE6FFE6FFE6FFA5
:104FE400E6FFE6FFE6FFE6FFE6FFE6FFE6FFE6FF95
:104FF400E6FFE6FFE6FF01000100E6FFE6FFE6FF4D
:10500400E6FFE6FFE6FFE6FFE6FFE6FFE6FFE6FF74
:10501400E6FFE6FFE6FFE6FFE6FFE6FFE6FFE6FF64
:10502400E6FFE6FFE6FF01000100E6FFE6FFE6FF1C
:10503400E6FFE6FFE6FFE6FFE6FFE6FFE6FFE6FF44
:10504400E6FFE6FFE6FFE6FFE6FFE6FFE6FFE6FF34
:10505400E6FFE6FFE6FF01000100E6FFE6FFE6FFEC
:10506400E6FFE6FFE6FFE6FFE6FFE6FFE6FFE6FF14
:10507400E6FFE6FFE6FFE6FFE6FFE6FFE6FFE6FF04
:10508400E6FFE6FFE6FF01000100E6FFE6FFE6FFBC
:10509400E6FFE6FFE6FFE6FFE6FFE6FFE6FFE6FFE4
:1050A400E6FFE6FFE6FFE6FFE6FFE6FFE6FFE6FFD4
:1050B400E6FFE6FFE6FF01000100E6FFE6FFE6FF8C
:1050C400E6FFE6FFE6FFE6FFE6FFE6FFE6FFE6FFB4
:1050D400E6FFE6FFE6FFE6FFE6FFE6FFE6FFE6FFA4
:1050E400E6FFE6FFE6FF0100010001000100010008
:1050F40001000100010001000100010001000100A4
:105104000100010001000100010001000100010093
:105114000100010001000100010001000100010083
:105124000100010001000100010001000100010073
:105134000100010001000100010001000100010063
:1051440001000100010001000100C32FC32FC32F80
:10515400C32FC32FC32FC32FC32FC32FC32FC32FBB
:10516400C32FC32FC32FC32FC32FC32FC32FC32FAB
:10517400C32FC32FC32F01000100C32FC32FC32F7D
:10518400C32FC32FC32FC32FC32FC32FC32FC32F8B
:10519400C32FC32FC32FC32FC32FC32FC32FC32F7B
:1051A400C32FC32FC32F01000100C32FC32FC32F4D
:1051B400C32FC32FC32FC32FC32FC32FC32FC32F5B
:1051C400C32FC32FC32FC32FC32FC32FC32FC32F4B
:1051D400C32FC32FC32F01000100C32FC32FC32F1D
:1051E400C32FC32FC32FC32FC32FC32FC32FC32F2B
:1051F400C32FC32FC32FC32FC32FC32FC32FC32F1B
:10520400C32FC32FC32F01000100C32FC32FC32FEC
:10521400C32FC32FC32FC32FC32FC32FC32FC32FFA
:10522400C32FC32FC32FC32FC32FC32FC32FC32FEA
:10523400C32FC32FC32F01000100C32FC32FC32FBC
:10524400C32FC32FC32FC32FC32FC32FC32FC32FCA
:10525400C32FC32FC32FC32FC32FC32FC32FC32FBA
:10526400C32FC32FC32F01000100C32FC32FC32F8C
:10527400C32FC32FC32FC32FC32FC32FC32FC32F9A
:10528400C32FC32FC32FC32FC32FC32FC32FC32F8A
:10529400C32FC32FC32F01000100C32FC32FC32F5C
:1052A400C32FC32FC32FC32FC32FC32FC32FC32F6A
:1052B400C32FC32FC32FC32FC32FC32FC32FC32F5A
:1052C400C32FC32FC32F01000100010001000100FF
:1052D40001000100010001000100010001000100C2
:1052E40001000100010001000100010001000100B2
:1052F40001000100010001000100010001000100A2
:105304000100010001000100010001000100010091
:105314000100010001000100010001000100010081
:10532400010001000100010001005F1E5F1E5F1EFD
:105334005F1E5F1E5F1E5F1E5F1E5F1E5F1E5F1E81
:105344005F1E5F1E5F1E5F1E5F1E5F1E5F1E5F1E71
:105354005F1E5F1E5F1E010001005F1E5F1E5F1E59
:105364005F1E5F1E5F1E5F1E5F1E5F1E5F1E5F1E51
:105374005F1E5F1E5F1E5F1E5F1E5F1E5F1E5F1E41
:105384005F1E5F1E5F1E010001005F1E5F1E5F1E29
:105394005F1E5F1E5F1E5F1E5F1E5F1E5F1E5F1E21
:1053A4005F1E5F1E5F1E5F1E5F1E5F1E5F1E5F1E11
:1053B4005F1E5F1E5F1E010001005F1E5F1E5F1EF9
:1053C4005F1E5F1E5F1E5F1E5F1E5F1E5F1E5F1EF1
:1053D4005F1E5F1E5F1E5F1E5F1E5F1E5F1E5F1EE1
:1053E4005F1E5F1E5F1E010001005F1E5F1E5F1EC9
:1053F4005F1E5F1E5F1E5F1E5F1E5F1E5F1E5F1EC1
:105404005F1E5F1E5F1E5F1E5F1E5F1E5F1E5F1EB0
:105414005F1E5F1E5F1E010001005F1E5F1E5F1E98
:105424005F1E5F1E5F1E5F1E5F1E5F1E5F1E5F1E90
:105434005F1E5F1E5F1E5F1E5F1E5F1E5F1E5F1E80
:105444005F1E5F1E5F1E010001005F1E5F1E5F1E68
:105454005F1E5F1E5F1E5F1E5F1E5F1E5F1E5F1E60
:105464005F1E5F1E5F1E5F1E5F1E5F1E5F1E5F1E50
:105474005F1E5F1E5F1E010001005F1E5F1E5F1E38
:105484005F1E5F1E5F1E5F1E5F1E5F1E5F1E5F1E30
:105494005F1E5F1E5F1E5F1E5F1E5F1E5F1E5F1E20
:1054A4005F1E5F1E5F1E010001000100010001007C
:1054B40001000100010001000100010001000100E0
:1054C40001000100010001000100010001000100D0
:1054D4000100010001000100FFFFFFFFFFFFFFFFCC
:1054E400FFFFFFFFFFFFFFFFFFFFFFFFFFFFFFFFC8
:1054F400FFFFFFFFFFFFFFFFFFFFFFFFFFFFFFFFB8
:10550400FFFFFFFFFFFFFFFFFFFFFFFFFFFFFFFFA7
:10551400FFFFFFFFFFFFFFFFFFFFFFFFFFFFFFFF97
:10552400FFFFFFFFFFFFFFFFFFFFFFFFFFFFFFFF87
:10553400FFFFFFFFFFFFFFFFFFFFFFFFFFFFFFFF77
:10554400FFFFFFFFFFFFFFFFFFFFFFFFFFFFFFFF67
:105554000000FFFF0000FFFFFFFFFFFF0000FFFF51
:105564000000000000000000000000000000000037
:105574000000000000000000000000000000000027
:10558400E0FFE0FF00000000000000000000000059
:105594000000E0FFE0FFE0FFE0FF0000000000008B
:1055A4000000E0FFE0FF0000E0FFE0FF0000E0FF9C
:1055B400E0FF00000000E0FFE0FF0000E0FFE0FF8C
:1055C4000000E0FFE0FF00000000E0FFE0FFE0FF7C
:1055D400E0FFE0FFE0FFE0FFE0FF00000000E0FF8D
:1055E400E0FFE0FFE0FFE0FFE0FFE0FFE0FF00009E
:1055F40000000000E0FFE0FF00000000E0FFE0FF2B
:105604000000000000000000E0FFE0FF00000000D8
:10561400E0FFE0FF000000000000E0FFE0FF00000A
:10562400000000000000E0FFE0FF0000E0FFE0FFFA
:10563400E0FF0000000000000000E0FFE0FFE0FFEA
:105644000000000000000000000000000000000056
:105654000000000000000000000000000000000046
:105664000000000000000000000000000000000036
:10567400FFFFFFFF0000000000000000000000002A
:1056840000000000FFFFFFFF00000000000000001A
:105694000000FFFFFFFFFFFFFFFFFFFFFFFFFFFF14
:1056A400FFFF0000FFFFFFFFFFFFFFFFFFFFFFFF04
:1056B400FFFFFFFFFFFFFFFFFFFFFFFFFFFFFFFFF6
:1056C400FFFFFFFFFFFFFFFFFFFFFFFF00000000E2
:1056D400E007000000000000E007E007E00700002A
:1056E4000000E007E007E00700000000E007E00733
:1056F400E00700000000E007E007E0070000E00723
:10570400E007E007E007E007E007E007E007E0075D
:10571400E00700000000E0FF0000000000000000BF
:10572400E0FF00000000FF18FF18FF18FF18FF1823
:10573400FF18FF18FF18FF18FF180000FF18FF18C4
:10574400FF1800000000FF18FF18FF1800000000F9
:10575400FF18FF18FF1800000000FF18FF18FF18BB
:10576400000000000000FF1800000000000000001E
:105774000000000000F800F8000000000000000035
:1057840000F800000000000000F800F8000000002D
:10579400000000F8000000F80000000000F800F825
:1057A4000000000000F800000000000000F8000005
:1057B40000F800F8000000F80000000000000000FD
:1057C400000000F800F800F800F8000000000000F5
:1057D40000F800F800F800F800F800F800F800F805
:1057E40000F800F800F800F800F800F800F800F8F5
:1057F40000F800F800F800F800000000000000F8CD
:1058040000F800F800F800000000000000000000AC
:1058140000F8000000F800F8000000F800000000A4
:10582400000000F80000000000F800F8000000008C
:1058340000F8000000F800000000000000F800F884
:1058440000000000000000F800000000000000005C
:1058540000F800F8000000000000000088010000CB
:105864000000000088010000000000008801000022
:105874000000000037010000D20100008801000090
:1058840037010000D2010000880100004B02000033
:10589400000000004B020000000000004B0200006A
:1058A400000000006E020000D2010000720100003E
:1058B40037010000D2010000880100000000000050
:1058C40000000000000000000000000000000000D4
:1058D40000000000000000000000000000000000C4
:1058E40000000000000000000000000000000000B4
:1058F40000000000000000000000000000000000A4
:105904000000000000000000000000000000000093
:105914000000000000000000000000000000000083
:105924000000000084030000640000008403000001
:105934006400000084030000000000002003000055
:10594400C80000008403000020030000C800000019
:1059540008070000840300006400000084030000C2
:10596400640000008403000064000000840300005D
:10597400C80000008403000020030000C8000000E9
:105984000807000000000000000000000000000004
:105994000000000000000000000000000000000003
:1059A40000000000000000000000000000000000F3
:1059B40000000000000000000000000000000000E3
:1059C40000000000000000000000000000000000D3
:1059D40000000000000000000000000000000000C3
:0C59E400000000000000000000000000B7
:0459F0005A00000059
:00000001FF
